:100000000C94C7010C94E4010C94E4010C94E401F9
:100010000C94E4010C94E4010C94E4010C94E401CC
:100020000C94E4010C94E4010C94E4010C94E401BC
:100030000C94E4010C94E4010C94E4010C94E401AC
:100040000C94E4010C94E4010C94E4010C94E4019C
:100050000C94E4010C94E4010C94E4010C94390236
:100060000C94E4010C94E4010C94E4010C94E4017C
:100070000C94E4010C94E4010C94E4010C94E4016C
:100080000C94E4010C94E4010C94E4010C94E4015C
:100090000C94E4010C94E4010C94E4010C94E4014C
:1000A0000C94E4010C94E4010C94E4016E616E0084
:1000B000696E660000407A10F35A00A0724E18096B
:1000C0000010A5D4E80000E87648170000E40B54BF
:1000D000020000CA9A3B000000E1F505000080968E
:1000E0009800000040420F000000A08601000000C0
:1000F000102700000000E80300000000640000007A
:1001000000000A00000000000100000000002C7642
:10011000D888DC674F0823DFC1DFAE59E1B1B7965D
:10012000E5E3E453C63AE651997696E8E6C28426BA
:10013000EB898C9B62ED407C6FFCEFBC9C9F40F296
:10014000BAA56FA5F490055A2AF75C936B6CF96712
:100150006DC11BFCE0E40D47FEF520E6B500D0EDD7
:10016000902E0300943577050080841E080000203F
:100170004E0A000000C80C333333330F986E1283DD
:100180001141EF8D2114893BE65516CFFEE6DB18B1
:10019000D1844B381BF77C1D901DA4BBE424203276
:1001A00084725E228100C9F124ECA1E53D270000A4
:1001B00000000000005F00000007000700147F142B
:1001C0007F14242A7F2A1223130864623649552299
:1001D000500005030000001C2241000041221C00C9
:1001E00014083E081408083E0808005030000008B3
:1001F00008080808006060000020100804023E5152
:1002000049453E00427F40004261514946214145F7
:100210004B311814127F1027454545393C4A49494E
:100220003001710905033649494936064949291EF5
:100230000036360000005636000008142241001433
:100240001414141400412214080201510906324901
:1002500079413E7E1111117E7F494949363E414127
:1002600041227F4141221C7F494949417F090909B7
:10027000013E4149497A7F0808087F00417F4100DB
:100280002040413F017F081422417F404040407F91
:10029000020C027F7F0408107F3E4141413E7F09EE
:1002A0000909063E4151215E7F09192946464949FF
:1002B000493101017F01013F4040403F1F20402064
:1002C0001F3F4038403F6314081463070870080755
:1002D0006151494543007F4141000204081020005C
:1002E00041417F00040201020440404040400001BF
:1002F00002040020545454787F484444383844441D
:100300004420384444487F3854545418087E090126
:10031000020C5252523E7F0804047800447D400093
:100320002040443D007F1028440000417F40007C75
:10033000041804787C0804047838444444387C1455
:10034000141408081414187C7C0804040848545435
:100350005420043F4440203C4040207C1C2040204E
:100360001C3C4030403C44281028440C5050503C29
:100370004464544C44000836410000007F000000F3
:1003800041360800100808100878464146781124C4
:100390001FBECFEFDAE0DEBFCDBF11E0A0E0B1E0DD
:1003A000E2EBF0E202C005900D92AE33B107D9F74F
:1003B00023E0AEE3B1E001C01D92AA37B207E1F736
:1003C0000E9454050C9457100C9400000F93CF9387
:1003D000DF93D82FC62F5F934F933F932F9386E0E1
:1003E00091E09F938F931F9284E18F938AE591E030
:1003F0009F938F930E94660F8DB79EB70A960FB694
:10040000F8949EBF0FBE8DBF6C2F70E0202F4AE581
:1004100051E08D2F90E0DF91CF910F910C942E073A
:100420001F93CF93DF93D82FC62F122F5F934F9335
:1004300089E091E09F938F931F9284E18F938AE5E7
:1004400091E09F938F930E94660F8DB79EB7089699
:100450000FB6F8949EBF0FBE8DBF6C2F70E0212F9A
:100460004AE551E08D2F90E0DF91CF911F910C94E0
:100470002E078F938FB78F939F9380914001909118
:100480004101019690934101809340019F918F918A
:100490008FBF8F9118950F93CF93DF93D0E0C0E07B
:1004A00000E027E230E0AE0167E270E0CE010E949A
:1004B000A7052296C635D10599F7DF91CF910F9107
:1004C00008950F9360917A0170917B0180915201A0
:1004D00090915301AC014F5F5F4F01E09B010E947F
:1004E000A70560917A0170917B016F5F7F4F8091CA
:1004F000520190915301AC014F5F5F4F9B010E94ED
:10050000A70560917A0170917B016E5F7F4F8091AA
:10051000520190915301AC014E5F5F4F9B010197D7
:100520000E94A70560917A0170917B016D5F7F4FFA
:100530008091520190915301AC014C5F5F4F9B0140
:1005400003970E94A70560917A0170917B016C5F0F
:100550007F4F8091520190915301AC014D5F5F4FED
:100560009B0102970E94A70560917A0170917B011F
:100570006B5F7F4F8091520190915301AC014C5FB2
:100580005F4F9B0103970E94A7050F9108958AE290
:1005900090E0909353018093520190937B0180935C
:1005A0007A010895E1E6F0E080E8808381E08083CD
:1005B0008FE30E9471070E94790521E04CE051E031
:1005C00070E060E090E080E00E942E0721E046E1CC
:1005D00051E06AE070E090E080E00E942E070E9407
:1005E0006605509851982098219827988598869864
:1005F0000895AF92BF92CF92DF92EF92FF920F9346
:10060000CF93DF938CE7C82E81E0D82E9CE4A92EEF
:1006100091E0B92EF601619171916F0141E0F50110
:10062000819191915F010E948105F6017291629121
:100630007F016F5F7F4FE5019A918A91AC014F5F17
:100640005F4F01E09B0101970E94A705F7016081C0
:1006500071816E5F7F4F88819981AC014E5F5F4FE2
:100660009B0102970E94A705F701608171816D5F70
:100670007F4F88819981AC014D5F5F4F9B0103974C
:100680000E94A705F701608171816C5F7F4F8881AF
:100690009981AC014E5F5F4F9B0102970E94A705B5
:1006A000F701608171816B5F7F4F88819981AC0117
:1006B0004F5F5F4F9B0101970E94A705F701608183
:1006C00071816A5F7F4F41E0888199810E94810535
:1006D000F2E8CF16F1E0DF0609F09CCFDF91CF9171
:1006E0000F91FF90EF90DF90CF90BF90AF90089563
:1006F000CF92DF92EF92FF920F931F93CF93DF93EE
:10070000CCE4D1E00CE711E08DE4C82ED12C96EFBB
:10071000E92EFF24FA940E94380EB6010E948D0D36
:1007200089939993F801E192F1928F01F1E0C2353A
:10073000DF0789F7DF91CF911F910F91FF90EF9025
:10074000DF90CF900895AF92BF92CF92DF92EF9259
:10075000FF920F931F93CF93DF938CE7C82E81E016
:10076000D82ED0E0C0E00DE410E099EFE92EFF2490
:10077000FA94F601819191916F010196929382937F
:100780005F018197B4F00E94380EFE01E45BFE4FDA
:10079000B8010E948D0D91838083F501F182E08282
:1007A0008091000190910101019790930101809344
:1007B00000012296C630D105E1F6DF91CF911F915D
:1007C0000F91FF90EF90DF90CF90BF90AF90089582
:1007D0002091420130914301809152019091530147
:1007E0002F3F320789F40197909353018093520170
:1007F00080915201909153018F34910551F41092E0
:1008000043011092420108952130310589F7019684
:10081000EBCF0397A1F30895199B0CC0809142017F
:10082000909143010097A9F48FEF9FEF90934301BC
:1008300080934201489B1AC08091420190914301EC
:10084000009771F481E090E090934301809342011E
:100850000895019779F71092430110924201EACF6F
:10086000019621F410924301109242010895CF9213
:10087000DF92EF92FF920F931F93CF93009140016D
:1008800010914101C6B50E94790521E045E251E091
:1008900065E070E083E090E00E942E07B801110F40
:1008A000880B990B0E941E0C20E030E040E853E4D6
:1008B0000E94AF0C6B017C016C2F70E090E080E037
:1008C0000E941E0C9B01AC01C701B6010E94080BDF
:1008D00020E030E040E854E40E94AF0C20E034E235
:1008E00044EF5AE40E94740B0E941C0D0E94E60B18
:1008F00021E0AB0165E083E20E94100221E04CE2BE
:1009000051E06FE070E083E090E00E942E0740919C
:1009100000015091010121E06FE083E20E9410028A
:1009200021E046E351E069E170E083E090E00E945D
:100930002E0740913E0150913F0121E069E183E2A1
:100940000E941002CF911F910F91FF90EF90DF90C6
:10095000CF900C94660514BC85E085BD81E0809342
:100960006E00789408950E94D2020E94AB040E9407
:1009700079050E94C7020E9478030C9466058F9245
:100980009F92AF92BF92EF92FF920F93CF93DF931C
:10099000D1E085E0E82EF12C7E990AC0DF91CF915D
:1009A0000F91FF90EF90BF90AF909F908F90089520
:1009B000D0934501F0920101E092000110923F01B5
:1009C00010923E016091400170914101C6B5072E21
:1009D000000C880B990B0E941E0C20E030E040E8D0
:1009E00053E40E94AF0C4B015C016C2F70E090E06F
:1009F00080E00E941E0C9B01AC01C501B4010E9465
:100A0000080B20E030E040E854E40E94AF0C20E006
:100A100034E244EF5AE40E94740B9B01AC0101E004
:100A200065E083E20E94E6010E94B304B5CF0E9414
:100A3000BF04189B06C08091450191E089278093EF
:100A4000450183B1881F8827881F813029F4909140
:100A500044018927809344018091440181110E94BF
:100A6000370480914501882379F00E9479058091AF
:100A7000440181110C9437040E944B020E946102D0
:100A80000E94F9020C9466050E9479050E944B02AF
:100A90000E9461020E94F9020E9466050E94E8031A
:100AA0000E940C040C94A3030E94B3040E94D2027F
:100AB0007E9BFECF0E9417052FEF80E792E021502A
:100AC00080409040E1F700C00000F4CFCF93DF9367
:100AD00060E080E00E94AE07C2E8D1E0699181E069
:100AE0000E94530783E0CA37D807C1F7DF91CF913F
:100AF0000895E2E8F1E0119283E0EA37F807D9F7C8
:100B0000089584359105F8F460337105E0F49B0194
:100B100073E0359527957A95E1F774E5729FF001BA
:100B2000739FF00D1124E80FF91FEE57FE4F8081DF
:100B3000677021E030E001C0220F6A95EAF7452B8B
:100B400019F0282B2083089520952823FBCF2F927E
:100B50003F924F925F926F927F928F929F92AF924D
:100B6000BF92CF92DF92EF92FF920F931F93CF939A
:100B7000DF93CDB7DEB728970FB6F894DEBF0FBE70
:100B8000CDBF98878F837B016A0119018417950770
:100B9000A1F56B0113C031E0C31AD1080FC0C21414
:100BA000D30494F0A801B6018F8198850E94810535
:100BB000E214F30484F72FEFC21AD20AE214F3040A
:100BC00074F72C143D0474F728960FB6F894DEBF22
:100BD0000FBECDBFDF91CF911F910F91FF90EF908E
:100BE000DF90CF90BF90AF909F908F907F906F904D
:100BF0005F904F903F902F9008956217730701F513
:100C0000AF80B88414C021E0A21AB10810C0AC149F
:100C1000BD04D4F2A801B701C5010E9481058F81EE
:100C200098858C159D057CF79FEFA91AB90A8F81CD
:100C300098858C159D055CF7CA14DB045CF7C4CF5E
:100C40002F8138854217530754F48F2D7101262EBA
:100C5000382E9F81888558874F83C92ED82EC6018C
:100C60002F813885821B930B9C838B83C1018E1946
:100C70009F099A838983BC01990F880B990B0E9465
:100C80001E0C4B015C012B813C81B901330F880B99
:100C9000990B0E941E0C9B01AC01C501B4010E947E
:100CA000740B2B013C0120E030E0A9010E94AA0C4A
:100CB00087FF04C077FA709477F87094812C912C98
:100CC00054018A81881F8827881F282F30E03E839F
:100CD0002D838B819C81181619060CF057C02F812B
:100CE0003885C216D3060CF46FCFA801B7018F81E7
:100CF00098850E948105A3019201C501B4010E945B
:100D0000080B4B015C0120E030E040E05FE30E9413
:100D1000AA0C87FD08C089819A811816190674F4F7
:100D20002E143F0474F42B813C81121613063CF5FB
:100D30008F819885019698878F83CBCFE214F30437
:100D400094F3A801B7018F8198850E94810581E005
:100D500090E029813A811216130614F090E080E0A9
:100D60002D813E81821B930BE80EF91E20E030E0BE
:100D700040E85FE3C501B4010E94070BC2CF2F8199
:100D800038852150310938872F83A3CF8F819885EB
:100D90008C159D050CF0A9CF17CF4F925F926F92E3
:100DA0007F928F929F92AF92BF92CF92DF92EF92FB
:100DB000FF920F931F93CF93DF935B013901405252
:100DC000550B65E0649F9001659F300D1124A901CA
:100DD00042555E4F7A018C012C0155E0450E511CA5
:100DE00088248394912CF701C4906114710409F450
:100DF000C094D0E0C0E0D12CA4010C2E02C0440F5E
:100E0000551F0A94E2F74C215D210C2E02C0559526
:100E100047950A94E2F7B5016C0F7D1FC8010E9447
:100E200081052196C830D10539F74FEFE41AF40A4D
:100E30000F5F1F4F04151505B1F6DF91CF911F917C
:100E40000F91FF90EF90DF90CF90BF90AF909F9069
:100E50008F907F906F905F904F900895CF92DF9228
:100E6000EF92FF920F931F93CF93DF937B018A0141
:100E70006901D82FC0E0F801EC0FF11D408141114C
:100E800009C0DF91CF911F910F91FF90EF90DF90FC
:100E9000CF9008959601B7018D2F90E00E94CD0666
:100EA000DB5FCF5FE8CF95B19F7D40E2849F9001EB
:100EB0001124922B95B95F9887E090E070E08F98AD
:100EC0009B01082E02C0359527950A94E2F720FF72
:100ED00006C02E9A8F9A019790F75F9A08952E98E0
:100EE000F9CFCF93C82F579A249A259A269A879A92
:100EF0002C985F9A2C9A61E280E00E9453076C2F35
:100F0000606880E00E94530764E080E00E9453071D
:100F100063E180E00E9453076CE080E00E94530789
:100F200060E280E00E9453076CE080E00E9453077B
:100F300060E480E00E94530760E880E0CF910C9469
:100F40005307CF93DF93C8EFD1E060E081E00E94C8
:100F500053072197D1F7DF91CF910895CF93C82FF1
:100F6000606480E00E9453076C2F606880E0CF913E
:100F70000C945307AFE0B0E0E0ECF7E00C94A10D67
:100F80006C011B014A01FC0117821682838181FFDB
:100F900034C39E012F5F3F4F3901F6019381F10168
:100FA00093FD859193FF81911F01882309F4D6C297
:100FB000853239F493FD859193FF81911F0185322C
:100FC00039F4B60190E00E94360F54014501E5CF97
:100FD000F12C512C00E0003238F48B3209F190F4FE
:100FE0008032F9F0833209F107FD34C020ED280F7B
:100FF0002A3020F506FF1BC0FAE0FF9E200D1124C9
:10100000F22E05C08D3279F0803371F70160F10165
:1010100093FD859193FF81911F018111DCCF1AC04F
:1010200002600460F4CF0860F2CF0061F0CF3AE0D4
:10103000539E200D1124522E0062E9CF8E3221F4EE
:1010400006FD8CC20064E3CF8C3611F40068DFCF5C
:101050008836E9F29BEB980F933008F05CC0006192
:10106000805E06FD02C046E0F42E102F1F73853609
:1010700009F058C0106417FF5EC08F2D9BE39F15C9
:1010800008F48BE344244394480E27E0F401619173
:101090007191819191915F01042DA3010E94480EED
:1010A0004C01F981FC87F0FF03C00DE2F3FF07C09C
:1010B0000BE211FD04C0012F047012FD00E22C852B
:1010C0002C70E22E09F457C001119AC2F3E0E12C12
:1010D000F515A0F483E0E52CE81A13FD08C0B6016D
:1010E00080E290E00E94360FEA94E110F8CF0023EE
:1010F00029F0B601802F90E00E94360F3C852CEA43
:10110000822E20E0922E33FD04C090EB892E90E0D9
:10111000992E107122C09BE9980F933008F034C1CA
:101120000F7E9FCF863611F41068A5CFFF2009F4FB
:10113000A2CFFA94A0CFE7E02F2DEF1518F427E007
:1011400037E0F32E412CA2CF11118052B60190E06E
:101150000E94360F8FEF881A980AF401849181114A
:10116000F3CFEE2009F432CFB60180E290E00E9486
:10117000360FEA94F6CF17FF70C0480CFC85F4FFD9
:1011800004C08A81813309F44A9414140CF087C096
:1011900028E0241510F488E0482E85E090E017FF41
:1011A00006C0C40197FE02C090E080E001960111E4
:1011B0000196FF2031F02F2D30E02F5F3F4F820F3F
:1011C000931F5816190619F014F0E52CE81A812F10
:1011D000897011F4E11068C0002329F0B601802F56
:1011E00090E00E94360F13FD02C0E11064C017FFAB
:1011F0007DC0840197FE02C010E000E0C4018419A4
:1012000091092C016F2D70E0EE27FF27E61BF70BED
:10121000FF87EE87801691060CF454C040165106E5
:101220000CF050C0F401E01BF10BE60DF71D8181BD
:10123000015011092E853F85021713070CF444C095
:10124000B60190E00E94360F0F3F100719F7B60164
:101250008EE290E00E94360FDDCF16FD9ECFEF2D7F
:10126000F0E0E815F90534F03CEF83163FEF930604
:101270000CF010683296E60DF71D01C0FA94FF20BD
:1012800019F082918033D1F317FF87CF4424439420
:101290004F0CF814190431F02CF0F8187ECF4424C8
:1012A00043947BCFF12C79CFB60180E290E00E948D
:1012B000360FEA948FCFB60180E390E00E94360F9C
:1012C000EA9493CF80E3B4CF8016910641F49A81DB
:1012D000963350F4953319F49C8594FF05C0B601FC
:1012E00090E00E94360F3DCF81E3F9CF8A818133B0
:1012F00019F0EC85EF7EEC87B60190E00E94360F86
:10130000FF20A9F0B6018EE290E00E94360FF39420
:10131000F394E2E001E00E0FE60DF72DF11D808160
:10132000B60190E00E94360FE02F0F11F3CF85E653
:1013300090E014FF02C085E490E0B6010E94360FF1
:1013400097FC06C081149104C1F4FC85F4FF15C01C
:101350009194819491088DE2B60190E00E94360F3D
:1013600080E33AE08316910454F4B60190E00E94C1
:10137000360FB601C401C096B4CF8BE2EDCF8F5FBC
:101380002AE0821A9108EDCF8336B1F0833759F104
:10139000833509F055C0F401819091905F016F2D64
:1013A00070E006FD02C06FEF7FEFC4010E94200FC6
:1013B0009D878C8700680DC0540182E0A80EB11C87
:1013C000F4018081898321E030E03D872C8743014F
:1013D0000F7703FD06C02C853D855216130609F0D4
:1013E00090F4E52C28C0F401819091905F016F2D5D
:1013F00070E006FD02C06FEF7FEFC4010E942B0F6B
:101400009D878C87E5CFB60180E290E00E94360F81
:101410005A94E1CFF40107FD859107FF81914F01B7
:10142000B60190E00E94360FE110EA948C859D850C
:1014300001979D878C87EC85FD85EF2B59F791CE21
:10144000843619F0893609F06EC0F40107FF63C0D5
:1014500061917191819191915F01102F1F7697FF9A
:1014600008C090958095709561957F4F8F4F9F4FE5
:1014700010682AE030E0A3010E94960F882E86189B
:10148000982C012F16FF0AC00E7F8F1438F414FF1A
:1014900004C012FD02C0012F0E7E9F2C04FF85C0E8
:1014A000FE01E80DF11D8081803309F077C0097ECF
:1014B000F02FF870EF2E03FD87C000FF81C0F82CDD
:1014C000951410F4F50CF91804FF84C0B60180E3FC
:1014D00090E00E94360F02FF09C088E790E001FF0C
:1014E00002C088E590E0B6010E94360F8F1408F420
:1014F0007DC08A94082D10E00F5F1F4F060D171D49
:10150000F80182918F01B60190E00E94360F061516
:101510001705B1F726CE619171915F01072E000C7E
:10152000880B990B9ACF102F853791F41F7E2AE0F4
:1015300030E0F40117FF2CC061917191819191917C
:101540005F01A3010E94960F882E86181F7798CFFF
:10155000197F8F36D1F048F4883591F0F6018681F5
:1015600097812F96E2E10C94BD0D803739F08837D2
:10157000A9F714FD146020E130E0DBCF1061F9CF52
:1015800004FD166020E132E0D4CF28E030E0D1CF76
:10159000619171915F0190E080E0D3CF02FD02C0C4
:1015A000939486CF9394939483CF802F867809F475
:1015B0007FCFF6CFB60180E290E00E94360F939481
:1015C0009514C0F3E12C80CFE52CE918951408F4AC
:1015D0007BCFF8CF802F867809F488CF8BE201FF8C
:1015E00080E207FD8DE2B60190E07ECFB60180E398
:1015F00090E00E94360FFA9479CF8FEF9FEFB1CF32
:1016000024E0E12C251508F074CD84E064CD505819
:10161000BB27AA270E941F0B0C94700C0E94620C1F
:1016200038F00E94690C20F039F49F3F19F426F439
:101630000C945F0C0EF4E095E7FB0C94590CE92F29
:101640000E94810C58F3BA17620773078407950745
:1016500020F079F4A6F50C94A30C0EF4E0950B2E73
:10166000BA2FA02D0B01B90190010C01CA01A001F4
:101670001124FF27591B99F0593F50F4503E68F14F
:101680001A16F040A22F232F342F4427585FF3CF90
:10169000469537952795A795F0405395C9F77EF461
:1016A0001F16BA0B620B730B840BBAF09150A1F0AA
:1016B000FF0FBB1F661F771F881FC2F70EC0BA0F30
:1016C000621F731F841F48F4879577956795B795B8
:1016D000F7959E3F08F0B0CF9395880F08F09927B3
:1016E000EE0F9795879508950E94880B0C94700CC7
:1016F0000E94690C58F00E94620C40F029F45F3F90
:1017000029F00C94590C51110C94A40C0C945F0CFE
:101710000E94810C68F39923B1F3552391F3951B33
:10172000550BBB27AA2762177307840738F09F5F02
:101730005F4F220F331F441FAA1FA9F335D00E2E6F
:101740003AF0E0E832D091505040E695001CCAF7DC
:101750002BD0FE2F29D0660F771F881FBB1F26179F
:1017600037074807AB07B0E809F0BB0B802DBF0176
:10177000FF2793585F4F3AF09E3F510578F00C9445
:10178000590C0C94A40C5F3FE4F3983ED4F3869577
:1017900077956795B795F7959F5FC9F7880F911D66
:1017A0009695879597F90895E1E0660F771F881F52
:1017B000BB1F621773078407BA0720F0621B730B05
:1017C000840BBA0BEE1F88F7E09508950E94ED0B8D
:1017D0006894B1110C94A40C08950E94890C88F0AF
:1017E0009F5798F0B92F9927B751B0F0E1F0660FE5
:1017F000771F881F991F1AF0BA95C9F714C0B13026
:1018000091F00E94A30CB1E008950C94A30C672FF3
:10181000782F8827B85F39F0B93FCCF38695779554
:101820006795B395D9F73EF490958095709561953D
:101830007F4F8F4F9F4F0895E89409C097FB3EF468
:1018400090958095709561957F4F8F4F9F4F99230D
:10185000A9F0F92F96E9BB279395F695879577958B
:101860006795B795F111F8CFFAF4BB0F11F460FF4B
:101870001BC06F5F7F4F8F4F9F4F16C0882311F0A3
:1018800096E911C0772321F09EE8872F762F05C0B7
:10189000662371F096E8862F70E060E02AF09A9552
:1018A000660F771F881FDAF7880F9695879597F947
:1018B000089597F99F6780E870E060E008959FEFD2
:1018C00080EC089500240A941616170618060906D7
:1018D000089500240A9412161306140605060895A6
:1018E000092E0394000C11F4882352F0BB0F40F42E
:1018F000BF2B11F460FF04C06F5F7F4F8F4F9F4F6E
:10190000089557FD9058440F551F59F05F3F71F0EF
:101910004795880F97FB991F61F09F3F79F0879556
:101920000895121613061406551FF2CF4695F1DFDF
:1019300008C0161617061806991FF1CF869571056F
:10194000610508940895E894BB2766277727CB01A3
:1019500097F908950E94400D08F48FEF08950E94B2
:10196000C20C0C94700C0E94620C38F00E94690C3E
:1019700020F0952311F00C94590C0C945F0C112459
:101980000C94A40C0E94810C70F3959FC1F3950FE9
:1019900050E0551F629FF001729FBB27F00DB11DF3
:1019A000639FAA27F00DB11DAA1F649F6627B00D83
:1019B000A11D661F829F2227B00DA11D621F739F6C
:1019C000B00DA11D621F839FA00D611D221F749F7A
:1019D0003327A00D611D231F849F600D211D822FC1
:1019E000762F6A2F11249F5750409AF0F1F08823E8
:1019F0004AF0EE0FFF1FBB1F661F771F881F915015
:101A00005040A9F79E3F510580F00C94590C0C945E
:101A1000A40C5F3FE4F3983ED4F3869577956795E1
:101A2000B795F795E7959F5FC1F7FE2B880F911D3E
:101A30009695879597F908950E94890CE8F09E374E
:101A4000E8F09639B8F49E3848F4672F782F882745
:101A5000985FF9CF86957795679593959539D0F3EB
:101A6000B62FB1706B0F711D811D20F4879577958E
:101A7000679593950C94640D0C947F0D0C94A40CB5
:101A8000990F0008550FAA0BE0E8FEEF161617068F
:101A9000E807F907C0F012161306E407F50798F0F7
:101AA000621B730B840B950B39F40A2661F0232B10
:101AB000242B252B21F408950A2609F4A140A6958C
:101AC0008FEF811D811D0895882371F4772321F004
:101AD0009850872B762F07C0662311F499270DC0E5
:101AE0009051862B70E060E02AF09A95660F771F80
:101AF000881FDAF7880F9695879597F908959F3F85
:101B000031F0915020F4879577956795B795880FB8
:101B1000911D9695879597F9089597FB072E16F4D2
:101B2000009407D077FD09D00E94D80D07FC05D09E
:101B30003EF4909581959F4F0895709561957F4FE4
:101B400008952F923F924F925F926F927F928F9261
:101B50009F92AF92BF92CF92DF92EF92FF920F933C
:101B60001F93CF93DF93CDB7DEB7CA1BDB0B0FB646
:101B7000F894DEBF0FBECDBF09942A883988488803
:101B80005F846E847D848C849B84AA84B984C88499
:101B9000DF80EE80FD800C811B81AA81B981CE0F90
:101BA000D11D0FB6F894DEBF0FBECDBFED01089575
:101BB000AA1BBB1B51E107C0AA1FBB1FA617B70773
:101BC00010F0A61BB70B881F991F5A95A9F780958F
:101BD0009095BC01CD0108958F929F92AF92BF92D4
:101BE000CF92DF92EF92FF92CF93DF93EC01688167
:101BF00079818A819B81611571058105910521F4A7
:101C000064E279ED8BE597E02DE133EF41E050E0C0
:101C10000E94F40F49015A019B01AC01A7EAB1E40B
:101C20000E9413106B017C01ACEEB4EFA50194018E
:101C30000E942110DC01CB018C0D9D1DAE1DBF1D2E
:101C4000B7FF03C00197A109B04888839983AA838D
:101C5000BB839F77DF91CF91FF90EF90DF90CF9084
:101C6000BF90AF909F908F9008950E94EC0D0895C3
:101C700082E091E00E94EC0D0895B0E0A0E0809336
:101C8000020190930301A0930401B093050108950C
:101C9000283008F027E03327DA01990F311D87FD3E
:101CA000916000966105710539F432602E5F3D93B5
:101CB00030E32A95E1F708959F3F30F080387105B1
:101CC000610509F03C5F3C5F3D93913008F080680E
:101CD000911DDF93CF931F930F93FF92EF92192FD4
:101CE000987F9695E92F96959695E90FFF27E25FE5
:101CF000FE4F99273327EE24FF24A701E701059023
:101D00000894079428F4360FE71EF81E491F511D4A
:101D1000660F771F881F991F0694A1F705900794F7
:101D200028F4E70EF81E491F561FC11D770F881FA4
:101D3000991F661F0694A1F70590079428F4F80EE2
:101D4000491F561FC71FD11D880F991F661F771F78
:101D50000694A1F70590079420F4490F561FC71F5A
:101D6000D81F990F661F771F881F0694A9F78491C3
:101D70001095177041F0D695C79557954795F794EC
:101D8000E7941A95C1F7E4EBF0E06894159015918B
:101D900035916591959105907FE27395E118F10A6F
:101DA000430B560BC90BD009C0F7E10CF11E431FC2
:101DB000561FC91FD01D7EF4703311F48A95E6CFEB
:101DC000E894015030F0080F0AF40027021708F4D5
:101DD000202F2395022F7A3328F079E37D932A95DB
:101DE000E9F710C07D932A9589F606949795679533
:101DF000379517951794E118F10A430B560BC90B49
:101E0000D00998F023957E9173957A3308F070E3AA
:101E10007C932013B8F77E9170617D9330F08395A9
:101E200071E37D9370E32A95E1F71124EF90FF9021
:101E30000F911F91CF91DF91992787FD909508957C
:101E4000FC010590615070400110D8F78095909585
:101E50008E0F9F1F0895FC0161507040019001108A
:101E6000D8F7809590958E0F9F1F08950F931F931D
:101E7000CF93DF93182F092FEB018B8181FD09C0D0
:101E80001FEF0FEF812F902FDF91CF911F910F91B7
:101E9000089582FF14C02E813F818C819D81281777
:101EA00039073CF4E881F981CF0101969983888351
:101EB00010838E819F8101969F838E83E3CFE88577
:101EC000F985812F0995892BA1F3DACFAEE0B0E037
:101ED000ECE6FFE00C94AF0D0D891E898F89988D7B
:101EE00026E02C831A83098397FF02C080E090E8E4
:101EF00001979E838D83AE01455E5F4F698D7A8D1C
:101F0000CE0101960E94BA074D815E8157FD0AC03D
:101F10002F813885421753070CF49A01020F131FC3
:101F2000F80110822E96E4E00C94CB0DFA01AA275A
:101F3000283051F1203181F1E8946F936E7F6E5F0C
:101F40007F4F8F4F9F4FAF4FB1E03ED0B4E03CD0BA
:101F5000670F781F891F9A1FA11D680F791F8A1F9D
:101F6000911DA11D6A0F711D811D911DA11D20D004
:101F700009F468943F912AE0269F11243019305DBE
:101F80003193DEF6CF010895462F4770405D4193AF
:101F9000B3E00FD0C9F7F6CF462F4F70405D4A33FC
:101FA00018F0495D31FD4052419302D0A9F7EACFC4
:101FB000B4E0A6959795879577956795BA95C9F7F3
:101FC00000976105710508959B01AC010A2E0694E6
:101FD0005795479537952795BA95C9F7620F731F9F
:101FE000841F951FA01D0895052E97FB1EF40094D5
:101FF0000E940B1057FD07D00E94261007FC03D04B
:102000004EF40C940B1050954095309521953F4F10
:102010004F4F5F4F089590958095709561957F4FD4
:102020008F4F9F4F08950E944810A59F900DB49F19
:10203000900DA49F800D911D11240895B7FF0C945D
:1020400013100E941310821B930B0895A1E21A2E05
:10205000AA1BBB1BFD010DC0AA1FBB1FEE1FFF1F4C
:10206000A217B307E407F50720F0A21BB30BE40B9C
:10207000F50B661F771F881F991F1A9469F76095E3
:102080007095809590959B01AC01BD01CF0108959D
:10209000A29FB001B39FC001A39F700D811D1124A9
:1020A000911DB29F700D811D1124911D0895F8940A
:0220B000FFCF60
:1020B2000500010000002566002564006E31303005
:1020C2003332303239005374617220566F7961674E
:1020D200657221210054696D653A20004C6976656C
:0E20E200733A2020200053636F72653A20008D
:00000001FF
